{
  "contractName": "DonationContract",
  "abi": [
    {
      "anonymous": false,
      "inputs": [
        {
          "indexed": true,
          "internalType": "address",
          "name": "donor",
          "type": "address"
        },
        {
          "indexed": true,
          "internalType": "address",
          "name": "charity",
          "type": "address"
        },
        {
          "indexed": false,
          "internalType": "uint256",
          "name": "amount",
          "type": "uint256"
        },
        {
          "indexed": false,
          "internalType": "string",
          "name": "message",
          "type": "string"
        },
        {
          "indexed": false,
          "internalType": "uint256",
          "name": "timestamp",
          "type": "uint256"
        }
      ],
      "name": "DonationMade",
      "type": "event"
    },
    {
      "inputs": [
        {
          "internalType": "address",
          "name": "",
          "type": "address"
        },
        {
          "internalType": "uint256",
          "name": "",
          "type": "uint256"
        }
      ],
      "name": "donationHistory",
      "outputs": [
        {
          "internalType": "address",
          "name": "donor",
          "type": "address"
        },
        {
          "internalType": "address",
          "name": "charity",
          "type": "address"
        },
        {
          "internalType": "uint256",
          "name": "amount",
          "type": "uint256"
        },
        {
          "internalType": "uint256",
          "name": "timestamp",
          "type": "uint256"
        },
        {
          "internalType": "string",
          "name": "message",
          "type": "string"
        }
      ],
      "stateMutability": "view",
      "type": "function"
    },
    {
      "inputs": [
        {
          "internalType": "address",
          "name": "_charity",
          "type": "address"
        },
        {
          "internalType": "string",
          "name": "_message",
          "type": "string"
        }
      ],
      "name": "makeDonation",
      "outputs": [],
      "stateMutability": "payable",
      "type": "function"
    },
    {
      "inputs": [
        {
          "internalType": "address",
          "name": "_donor",
          "type": "address"
        }
      ],
      "name": "getDonationHistory",
      "outputs": [
        {
          "components": [
            {
              "internalType": "address",
              "name": "donor",
              "type": "address"
            },
            {
              "internalType": "address",
              "name": "charity",
              "type": "address"
            },
            {
              "internalType": "uint256",
              "name": "amount",
              "type": "uint256"
            },
            {
              "internalType": "uint256",
              "name": "timestamp",
              "type": "uint256"
            },
            {
              "internalType": "string",
              "name": "message",
              "type": "string"
            }
          ],
          "internalType": "struct DonationContract.Donation[]",
          "name": "",
          "type": "tuple[]"
        }
      ],
      "stateMutability": "view",
      "type": "function"
    }
  ],
  "bytecode": "0x6080604052348015600e575f5ffd5b506110fd8061001c5f395ff3fe608060405260043610610033575f3560e01c80633d31bdb414610037578063a59fe38814610077578063c36b889b146100b3575b5f5ffd5b348015610042575f5ffd5b5061005d60048036038101906100589190610797565b6100cf565b60405161006e959493929190610863565b60405180910390f35b348015610082575f5ffd5b5061009d600480360381019061009891906108bb565b6101de565b6040516100aa9190610a7a565b60405180910390f35b6100cd60048036038101906100c89190610bc6565b6103c3565b005b5f602052815f5260405f2081815481106100e7575f80fd5b905f5260205f2090600502015f9150915050805f015f9054906101000a900473ffffffffffffffffffffffffffffffffffffffff1690806001015f9054906101000a900473ffffffffffffffffffffffffffffffffffffffff169080600201549080600301549080600401805461015d90610c4d565b80601f016020809104026020016040519081016040528092919081815260200182805461018990610c4d565b80156101d45780601f106101ab576101008083540402835291602001916101d4565b820191905f5260205f20905b8154815290600101906020018083116101b757829003601f168201915b5050505050905085565b60605f5f8373ffffffffffffffffffffffffffffffffffffffff1673ffffffffffffffffffffffffffffffffffffffff1681526020019081526020015f20805480602002602001604051908101604052809291908181526020015f905b828210156103b8578382905f5260205f2090600502016040518060a00160405290815f82015f9054906101000a900473ffffffffffffffffffffffffffffffffffffffff1673ffffffffffffffffffffffffffffffffffffffff1673ffffffffffffffffffffffffffffffffffffffff168152602001600182015f9054906101000a900473ffffffffffffffffffffffffffffffffffffffff1673ffffffffffffffffffffffffffffffffffffffff1673ffffffffffffffffffffffffffffffffffffffff168152602001600282015481526020016003820154815260200160048201805461032990610c4d565b80601f016020809104026020016040519081016040528092919081815260200182805461035590610c4d565b80156103a05780601f10610377576101008083540402835291602001916103a0565b820191905f5260205f20905b81548152906001019060200180831161038357829003601f168201915b5050505050815250508152602001906001019061023b565b505050509050919050565b5f3411610405576040517f08c379a00000000000000000000000000000000000000000000000000000000081526004016103fc90610ced565b60405180910390fd5b5f73ffffffffffffffffffffffffffffffffffffffff168273ffffffffffffffffffffffffffffffffffffffff1603610473576040517f08c379a000000000000000000000000000000000000000000000000000000000815260040161046a90610d55565b60405180910390fd5b5f6040518060a001604052803373ffffffffffffffffffffffffffffffffffffffff1681526020018473ffffffffffffffffffffffffffffffffffffffff1681526020013481526020014281526020018381525090505f5f3373ffffffffffffffffffffffffffffffffffffffff1673ffffffffffffffffffffffffffffffffffffffff1681526020019081526020015f2081908060018154018082558091505060019003905f5260205f2090600502015f909190919091505f820151815f015f6101000a81548173ffffffffffffffffffffffffffffffffffffffff021916908373ffffffffffffffffffffffffffffffffffffffff1602179055506020820151816001015f6101000a81548173ffffffffffffffffffffffffffffffffffffffff021916908373ffffffffffffffffffffffffffffffffffffffff160217905550604082015181600201556060820151816003015560808201518160040190816105df9190610f13565b5050508273ffffffffffffffffffffffffffffffffffffffff163373ffffffffffffffffffffffffffffffffffffffff167faa049b44abee02581d397bb01b57f2567d18af0904d394338f572e579ef06f3c34854260405161064393929190610fe2565b60405180910390a35f8373ffffffffffffffffffffffffffffffffffffffff16346040516106709061104b565b5f6040518083038185875af1925050503d805f81146106aa576040519150601f19603f3d011682016040523d82523d5f602084013e6106af565b606091505b50509050806106f3576040517f08c379a00000000000000000000000000000000000000000000000000000000081526004016106ea906110a9565b60405180910390fd5b50505050565b5f604051905090565b5f5ffd5b5f5ffd5b5f73ffffffffffffffffffffffffffffffffffffffff82169050919050565b5f6107338261070a565b9050919050565b61074381610729565b811461074d575f5ffd5b50565b5f8135905061075e8161073a565b92915050565b5f819050919050565b61077681610764565b8114610780575f5ffd5b50565b5f813590506107918161076d565b92915050565b5f5f604083850312156107ad576107ac610702565b5b5f6107ba85828601610750565b92505060206107cb85828601610783565b9150509250929050565b6107de81610729565b82525050565b6107ed81610764565b82525050565b5f81519050919050565b5f82825260208201905092915050565b8281835e5f83830152505050565b5f601f19601f8301169050919050565b5f610835826107f3565b61083f81856107fd565b935061084f81856020860161080d565b6108588161081b565b840191505092915050565b5f60a0820190506108765f8301886107d5565b61088360208301876107d5565b61089060408301866107e4565b61089d60608301856107e4565b81810360808301526108af818461082b565b90509695505050505050565b5f602082840312156108d0576108cf610702565b5b5f6108dd84828501610750565b91505092915050565b5f81519050919050565b5f82825260208201905092915050565b5f819050602082019050919050565b61091881610729565b82525050565b61092781610764565b82525050565b5f82825260208201905092915050565b5f610947826107f3565b610951818561092d565b935061096181856020860161080d565b61096a8161081b565b840191505092915050565b5f60a083015f83015161098a5f86018261090f565b50602083015161099d602086018261090f565b5060408301516109b0604086018261091e565b5060608301516109c3606086018261091e565b50608083015184820360808601526109db828261093d565b9150508091505092915050565b5f6109f38383610975565b905092915050565b5f602082019050919050565b5f610a11826108e6565b610a1b81856108f0565b935083602082028501610a2d85610900565b805f5b85811015610a685784840389528151610a4985826109e8565b9450610a54836109fb565b925060208a01995050600181019050610a30565b50829750879550505050505092915050565b5f6020820190508181035f830152610a928184610a07565b905092915050565b5f5ffd5b5f5ffd5b7f4e487b71000000000000000000000000000000000000000000000000000000005f52604160045260245ffd5b610ad88261081b565b810181811067ffffffffffffffff82111715610af757610af6610aa2565b5b80604052505050565b5f610b096106f9565b9050610b158282610acf565b919050565b5f67ffffffffffffffff821115610b3457610b33610aa2565b5b610b3d8261081b565b9050602081019050919050565b828183375f83830152505050565b5f610b6a610b6584610b1a565b610b00565b905082815260208101848484011115610b8657610b85610a9e565b5b610b91848285610b4a565b509392505050565b5f82601f830112610bad57610bac610a9a565b5b8135610bbd848260208601610b58565b91505092915050565b5f5f60408385031215610bdc57610bdb610702565b5b5f610be985828601610750565b925050602083013567ffffffffffffffff811115610c0a57610c09610706565b5b610c1685828601610b99565b9150509250929050565b7f4e487b71000000000000000000000000000000000000000000000000000000005f52602260045260245ffd5b5f6002820490506001821680610c6457607f821691505b602082108103610c7757610c76610c20565b5b50919050565b7f446f6e6174696f6e20616d6f756e74206d7573742062652067726561746572205f8201527f7468616e20300000000000000000000000000000000000000000000000000000602082015250565b5f610cd76026836107fd565b9150610ce282610c7d565b604082019050919050565b5f6020820190508181035f830152610d0481610ccb565b9050919050565b7f496e76616c6964206368617269747920616464726573730000000000000000005f82015250565b5f610d3f6017836107fd565b9150610d4a82610d0b565b602082019050919050565b5f6020820190508181035f830152610d6c81610d33565b9050919050565b5f819050815f5260205f209050919050565b5f6020601f8301049050919050565b5f82821b905092915050565b5f60088302610dcf7fffffffffffffffffffffffffffffffffffffffffffffffffffffffffffffffff82610d94565b610dd98683610d94565b95508019841693508086168417925050509392505050565b5f819050919050565b5f610e14610e0f610e0a84610764565b610df1565b610764565b9050919050565b5f819050919050565b610e2d83610dfa565b610e41610e3982610e1b565b848454610da0565b825550505050565b5f5f905090565b610e58610e49565b610e63818484610e24565b505050565b5b81811015610e8657610e7b5f82610e50565b600181019050610e69565b5050565b601f821115610ecb57610e9c81610d73565b610ea584610d85565b81016020851015610eb4578190505b610ec8610ec085610d85565b830182610e68565b50505b505050565b5f82821c905092915050565b5f610eeb5f1984600802610ed0565b1980831691505092915050565b5f610f038383610edc565b9150826002028217905092915050565b610f1c826107f3565b67ffffffffffffffff811115610f3557610f34610aa2565b5b610f3f8254610c4d565b610f4a828285610e8a565b5f60209050601f831160018114610f7b575f8415610f69578287015190505b610f738582610ef8565b865550610fda565b601f198416610f8986610d73565b5f5b82811015610fb057848901518255600182019150602085019450602081019050610f8b565b86831015610fcd5784890151610fc9601f891682610edc565b8355505b6001600288020188555050505b505050505050565b5f606082019050610ff55f8301866107e4565b8181036020830152611007818561082b565b905061101660408301846107e4565b949350505050565b5f81905092915050565b50565b5f6110365f8361101e565b915061104182611028565b5f82019050919050565b5f6110558261102b565b9150819050919050565b7f4661696c656420746f2073656e6420646f6e6174696f6e0000000000000000005f82015250565b5f6110936017836107fd565b915061109e8261105f565b602082019050919050565b5f6020820190508181035f8301526110c081611087565b905091905056fea264697066735822122005f8029e154d9d8efb12ecd35da233463b684e968f05c18f5a57bddfed37027164736f6c634300081d0033",
  "immutableReferences": {},
  "source": "// SPDX-License-Identifier: MIT\r\npragma solidity ^0.8.0;\r\n\r\ncontract DonationContract {\r\n    struct Donation {\r\n        address donor;\r\n        address charity;\r\n        uint256 amount;\r\n        uint256 timestamp;\r\n        string message;\r\n    }\r\n\r\n    mapping(address => Donation[]) public donationHistory;\r\n    event DonationMade(address indexed donor, address indexed charity, uint256 amount, string message, uint256 timestamp);\r\n\r\n    function makeDonation(address _charity, string memory _message) public payable {\r\n        require(msg.value > 0, \"Donation amount must be greater than 0\");\r\n        require(_charity != address(0), \"Invalid charity address\");\r\n\r\n        Donation memory newDonation = Donation({\r\n            donor: msg.sender,\r\n            charity: _charity,\r\n            amount: msg.value,\r\n            timestamp: block.timestamp,\r\n            message: _message\r\n        });\r\n\r\n        donationHistory[msg.sender].push(newDonation);\r\n        emit DonationMade(msg.sender, _charity, msg.value, _message, block.timestamp);\r\n\r\n        (bool sent, ) = _charity.call{value: msg.value}(\"\");\r\n        require(sent, \"Failed to send donation\");\r\n    }\r\n\r\n    function getDonationHistory(address _donor) public view returns (Donation[] memory) {\r\n        return donationHistory[_donor];\r\n    }\r\n} ",
  "sourcePath": "C:\\Users\\M KRISHNA SAIRAM\\Desktop\\Cyberpunkz\\frontend\\src\\contracts\\DonationContract.sol",
  "compiler": {
    "name": "solc",
    "version": "0.8.29+commit.ab55807c.Emscripten.clang"
  },
  "schemaVersion": "3.4.16",
  "updatedAt": "2025-03-28T22:22:39.110Z",
  "devdoc": {
    "kind": "dev",
    "methods": {},
    "version": 1
  },
  "userdoc": {
    "kind": "user",
    "methods": {},
    "version": 1
  }
}